{
  "_format": "hh-sol-artifact-1",
  "contractName": "LDToken",
  "sourceName": "contracts/LDToken.sol",
  "abi": [
    {
      "inputs": [
        {
          "internalType": "string",
          "name": "name_",
          "type": "string"
        },
        {
          "internalType": "string",
          "name": "symbol_",
          "type": "string"
        }
      ],
      "stateMutability": "nonpayable",
      "type": "constructor"
    },
    {
      "anonymous": false,
      "inputs": [
        {
          "indexed": true,
          "internalType": "address",
          "name": "_from",
          "type": "address"
        },
        {
          "indexed": true,
          "internalType": "address",
          "name": "_to",
          "type": "address"
        },
        {
          "indexed": false,
          "internalType": "uint256",
          "name": "_value",
          "type": "uint256"
        }
      ],
      "name": "Transfer",
      "type": "event"
    },
    {
      "inputs": [],
      "name": "DOMAIN_SEPARATOR",
      "outputs": [
        {
          "internalType": "bytes32",
          "name": "",
          "type": "bytes32"
        }
      ],
      "stateMutability": "view",
      "type": "function"
    },
    {
      "inputs": [
        {
          "internalType": "address",
          "name": "account",
          "type": "address"
        },
        {
          "internalType": "uint256",
          "name": "amount",
          "type": "uint256"
        }
      ],
      "name": "_mint",
      "outputs": [],
      "stateMutability": "nonpayable",
      "type": "function"
    },
    {
      "inputs": [
        {
          "internalType": "address",
          "name": "owner",
          "type": "address"
        },
        {
          "internalType": "address",
          "name": "spender",
          "type": "address"
        }
      ],
      "name": "allowance",
      "outputs": [
        {
          "internalType": "uint256",
          "name": "remaining",
          "type": "uint256"
        }
      ],
      "stateMutability": "view",
      "type": "function"
    },
    {
      "inputs": [
        {
          "internalType": "address",
          "name": "spender",
          "type": "address"
        },
        {
          "internalType": "uint256",
          "name": "amount",
          "type": "uint256"
        }
      ],
      "name": "approve",
      "outputs": [
        {
          "internalType": "bool",
          "name": "",
          "type": "bool"
        }
      ],
      "stateMutability": "nonpayable",
      "type": "function"
    },
    {
      "inputs": [
        {
          "internalType": "address",
          "name": "account",
          "type": "address"
        }
      ],
      "name": "balanceOf",
      "outputs": [
        {
          "internalType": "uint256",
          "name": "",
          "type": "uint256"
        }
      ],
      "stateMutability": "view",
      "type": "function"
    },
    {
      "inputs": [],
      "name": "decimals",
      "outputs": [
        {
          "internalType": "uint8",
          "name": "",
          "type": "uint8"
        }
      ],
      "stateMutability": "pure",
      "type": "function"
    },
    {
      "inputs": [],
      "name": "name",
      "outputs": [
        {
          "internalType": "string",
          "name": "",
          "type": "string"
        }
      ],
      "stateMutability": "view",
      "type": "function"
    },
    {
      "inputs": [
        {
          "internalType": "address",
          "name": "owner",
          "type": "address"
        }
      ],
      "name": "nonces",
      "outputs": [
        {
          "internalType": "uint256",
          "name": "",
          "type": "uint256"
        }
      ],
      "stateMutability": "view",
      "type": "function"
    },
    {
      "inputs": [
        {
          "internalType": "address",
          "name": "owner",
          "type": "address"
        },
        {
          "internalType": "address",
          "name": "spender",
          "type": "address"
        },
        {
          "internalType": "uint256",
          "name": "value",
          "type": "uint256"
        },
        {
          "internalType": "uint256",
          "name": "deadline",
          "type": "uint256"
        },
        {
          "internalType": "uint8",
          "name": "v",
          "type": "uint8"
        },
        {
          "internalType": "bytes32",
          "name": "r",
          "type": "bytes32"
        },
        {
          "internalType": "bytes32",
          "name": "s",
          "type": "bytes32"
        }
      ],
      "name": "permit",
      "outputs": [],
      "stateMutability": "nonpayable",
      "type": "function"
    },
    {
      "inputs": [],
      "name": "symbol",
      "outputs": [
        {
          "internalType": "string",
          "name": "",
          "type": "string"
        }
      ],
      "stateMutability": "view",
      "type": "function"
    },
    {
      "inputs": [],
      "name": "totalSupply",
      "outputs": [
        {
          "internalType": "uint256",
          "name": "",
          "type": "uint256"
        }
      ],
      "stateMutability": "view",
      "type": "function"
    },
    {
      "inputs": [
        {
          "internalType": "address",
          "name": "to",
          "type": "address"
        },
        {
          "internalType": "uint256",
          "name": "amount",
          "type": "uint256"
        }
      ],
      "name": "transfer",
      "outputs": [
        {
          "internalType": "bool",
          "name": "",
          "type": "bool"
        }
      ],
      "stateMutability": "nonpayable",
      "type": "function"
    },
    {
      "inputs": [
        {
          "internalType": "address",
          "name": "from",
          "type": "address"
        },
        {
          "internalType": "address",
          "name": "to",
          "type": "address"
        },
        {
          "internalType": "uint256",
          "name": "amount",
          "type": "uint256"
        }
      ],
      "name": "transferFrom",
      "outputs": [
        {
          "internalType": "bool",
          "name": "success",
          "type": "bool"
        }
      ],
      "stateMutability": "nonpayable",
      "type": "function"
    }
  ],
  "bytecode": "0x6101606040527f6e71edae12b1b97f4d1f60370fef10105fa2faae0126114a169c64845d6126c9610140908152503480156200003a57600080fd5b506040516200223c3803806200223c8339818101604052810190620000609190620002e4565b816040518060400160405280600181526020017f320000000000000000000000000000000000000000000000000000000000000081525060008280519060200120905060008280519060200120905060007f8b73c3c69bb8fe3d512ecc4cf759cc79239f7b179b0ffacaa9a75d522b39400f90508260e081815250508161010081815250504660a08181525050620001008184846200018660201b60201c565b608081815250503073ffffffffffffffffffffffffffffffffffffffff1660c08173ffffffffffffffffffffffffffffffffffffffff1660601b815250508061012081815250505050505050816004908051906020019062000164929190620001c2565b5080600590805190602001906200017d929190620001c2565b5050506200059f565b60008383834630604051602001620001a39594939291906200038a565b6040516020818303038152906040528051906020012090509392505050565b828054620001d090620004c4565b90600052602060002090601f016020900481019282620001f4576000855562000240565b82601f106200020f57805160ff191683800117855562000240565b8280016001018555821562000240579182015b828111156200023f57825182559160200191906001019062000222565b5b5090506200024f919062000253565b5090565b5b808211156200026e57600081600090555060010162000254565b5090565b600062000289620002838462000410565b620003e7565b905082815260208101848484011115620002a257600080fd5b620002af8482856200048e565b509392505050565b600082601f830112620002c957600080fd5b8151620002db84826020860162000272565b91505092915050565b60008060408385031215620002f857600080fd5b600083015167ffffffffffffffff8111156200031357600080fd5b6200032185828601620002b7565b925050602083015167ffffffffffffffff8111156200033f57600080fd5b6200034d85828601620002b7565b9150509250929050565b620003628162000446565b82525050565b62000373816200045a565b82525050565b620003848162000484565b82525050565b600060a082019050620003a1600083018862000368565b620003b0602083018762000368565b620003bf604083018662000368565b620003ce606083018562000379565b620003dd608083018462000357565b9695505050505050565b6000620003f362000406565b9050620004018282620004fa565b919050565b6000604051905090565b600067ffffffffffffffff8211156200042e576200042d6200055f565b5b62000439826200058e565b9050602081019050919050565b6000620004538262000464565b9050919050565b6000819050919050565b600073ffffffffffffffffffffffffffffffffffffffff82169050919050565b6000819050919050565b60005b83811015620004ae57808201518184015260208101905062000491565b83811115620004be576000848401525b50505050565b60006002820490506001821680620004dd57607f821691505b60208210811415620004f457620004f362000530565b5b50919050565b62000505826200058e565b810181811067ffffffffffffffff821117156200052757620005266200055f565b5b80604052505050565b7f4e487b7100000000000000000000000000000000000000000000000000000000600052602260045260246000fd5b7f4e487b7100000000000000000000000000000000000000000000000000000000600052604160045260246000fd5b6000601f19601f8301169050919050565b60805160a05160c05160601c60e051610100516101205161014051611c3f620005fd600039600061075101526000610b8f01526000610bd101526000610bb001526000610ae501526000610b3b01526000610b640152611c3f6000f3fe608060405234801561001057600080fd5b50600436106100cf5760003560e01c80634e6ec2471161008c57806395d89b411161006657806395d89b4114610228578063a9059cbb14610246578063d505accf14610276578063dd62ed3e14610292576100cf565b80634e6ec247146101ac57806370a08231146101c85780637ecebe00146101f8576100cf565b806306fdde03146100d4578063095ea7b3146100f257806318160ddd1461012257806323b872dd14610140578063313ce567146101705780633644e5151461018e575b600080fd5b6100dc6102c2565b6040516100e991906116aa565b60405180910390f35b61010c60048036038101906101079190611332565b610350565b604051610119919061157b565b60405180910390f35b61012a6103dd565b60405161013791906117cc565b60405180910390f35b61015a60048036038101906101559190611245565b6103e7565b604051610167919061157b565b60405180910390f35b6101786104dc565b60405161018591906117e7565b60405180910390f35b6101966104e5565b6040516101a39190611596565b60405180910390f35b6101c660048036038101906101c19190611332565b6104f4565b005b6101e260048036038101906101dd91906111e0565b6105cd565b6040516101ef91906117cc565b60405180910390f35b610212600480360381019061020d91906111e0565b610616565b60405161021f91906117cc565b60405180910390f35b610230610665565b60405161023d91906116aa565b60405180910390f35b610260600480360381019061025b9190611332565b6106f3565b60405161026d919061157b565b60405180910390f35b610290600480360381019061028b9190611294565b61070a565b005b6102ac60048036038101906102a79190611209565b6108c2565b6040516102b991906117cc565b60405180910390f35b600480546102cf90611945565b80601f01602080910402602001604051908101604052809291908181526020018280546102fb90611945565b80156103485780601f1061031d57610100808354040283529160200191610348565b820191906000526020600020905b81548152906001019060200180831161032b57829003601f168201915b505050505081565b600081600260003373ffffffffffffffffffffffffffffffffffffffff1673ffffffffffffffffffffffffffffffffffffffff16815260200190815260200160002060008573ffffffffffffffffffffffffffffffffffffffff1673ffffffffffffffffffffffffffffffffffffffff168152602001908152602001600020819055506001905092915050565b6000600354905090565b6000806103f485336108c2565b905082811015610439576040517f08c379a00000000000000000000000000000000000000000000000000000000081526004016104309061170c565b60405180910390fd5b8281610445919061187f565b600260008773ffffffffffffffffffffffffffffffffffffffff1673ffffffffffffffffffffffffffffffffffffffff16815260200190815260200160002060003373ffffffffffffffffffffffffffffffffffffffff1673ffffffffffffffffffffffffffffffffffffffff168152602001908152602001600020819055506104d0858585610949565b60019150509392505050565b60006006905090565b60006104ef610ae1565b905090565b80600160008473ffffffffffffffffffffffffffffffffffffffff1673ffffffffffffffffffffffffffffffffffffffff16815260200190815260200160002060008282546105439190611829565b92505081905550806003600082825461055c9190611829565b925050819055508173ffffffffffffffffffffffffffffffffffffffff16600073ffffffffffffffffffffffffffffffffffffffff167fddf252ad1be2c89b69c2b068fc378daa952ba7f163c4a11628f55a4df523b3ef836040516105c191906117cc565b60405180910390a35050565b6000600160008373ffffffffffffffffffffffffffffffffffffffff1673ffffffffffffffffffffffffffffffffffffffff168152602001908152602001600020549050919050565b600061065e6000808473ffffffffffffffffffffffffffffffffffffffff1673ffffffffffffffffffffffffffffffffffffffff168152602001908152602001600020610bfb565b9050919050565b6005805461067290611945565b80601f016020809104026020016040519081016040528092919081815260200182805461069e90611945565b80156106eb5780601f106106c0576101008083540402835291602001916106eb565b820191906000526020600020905b8154815290600101906020018083116106ce57829003601f168201915b505050505081565b6000610700338484610949565b6001905092915050565b8342111561074d576040517f08c379a00000000000000000000000000000000000000000000000000000000081526004016107449061176c565b60405180910390fd5b60007f000000000000000000000000000000000000000000000000000000000000000088888861077c8c610c09565b89604051602001610792969594939291906115b1565b60405160208183030381529060405280519060200120905060006107b582610c66565b905060006107c582878787610c80565b90508973ffffffffffffffffffffffffffffffffffffffff168173ffffffffffffffffffffffffffffffffffffffff1614610835576040517f08c379a000000000000000000000000000000000000000000000000000000000815260040161082c9061174c565b60405180910390fd5b87600260008c73ffffffffffffffffffffffffffffffffffffffff1673ffffffffffffffffffffffffffffffffffffffff16815260200190815260200160002060008b73ffffffffffffffffffffffffffffffffffffffff1673ffffffffffffffffffffffffffffffffffffffff1681526020019081526020016000208190555050505050505050505050565b6000600260008473ffffffffffffffffffffffffffffffffffffffff1673ffffffffffffffffffffffffffffffffffffffff16815260200190815260200160002060008373ffffffffffffffffffffffffffffffffffffffff1673ffffffffffffffffffffffffffffffffffffffff16815260200190815260200160002054905092915050565b80600160008573ffffffffffffffffffffffffffffffffffffffff1673ffffffffffffffffffffffffffffffffffffffff1681526020019081526020016000205410156109cb576040517f08c379a00000000000000000000000000000000000000000000000000000000081526004016109c29061178c565b60405180910390fd5b80600160008573ffffffffffffffffffffffffffffffffffffffff1673ffffffffffffffffffffffffffffffffffffffff1681526020019081526020016000206000828254610a1a919061187f565b9250508190555080600160008473ffffffffffffffffffffffffffffffffffffffff1673ffffffffffffffffffffffffffffffffffffffff1681526020019081526020016000206000828254610a709190611829565b925050819055508173ffffffffffffffffffffffffffffffffffffffff168373ffffffffffffffffffffffffffffffffffffffff167fddf252ad1be2c89b69c2b068fc378daa952ba7f163c4a11628f55a4df523b3ef83604051610ad491906117cc565b60405180910390a3505050565b60007f000000000000000000000000000000000000000000000000000000000000000073ffffffffffffffffffffffffffffffffffffffff163073ffffffffffffffffffffffffffffffffffffffff16148015610b5d57507f000000000000000000000000000000000000000000000000000000000000000046145b15610b8a577f00000000000000000000000000000000000000000000000000000000000000009050610bf8565b610bf57f00000000000000000000000000000000000000000000000000000000000000007f00000000000000000000000000000000000000000000000000000000000000007f0000000000000000000000000000000000000000000000000000000000000000610cab565b90505b90565b600081600001549050919050565b6000806000808473ffffffffffffffffffffffffffffffffffffffff1673ffffffffffffffffffffffffffffffffffffffff1681526020019081526020016000209050610c5581610bfb565b9150610c6081610ce5565b50919050565b6000610c79610c73610ae1565b83610cfb565b9050919050565b6000806000610c9187878787610d2e565b91509150610c9e81610e3b565b8192505050949350505050565b60008383834630604051602001610cc6959493929190611612565b6040516020818303038152906040528051906020012090509392505050565b6001816000016000828254019250508190555050565b60008282604051602001610d10929190611544565b60405160208183030381529060405280519060200120905092915050565b6000807f7fffffffffffffffffffffffffffffff5d576e7357a4501ddfe92f46681b20a08360001c1115610d69576000600391509150610e32565b601b8560ff1614158015610d815750601c8560ff1614155b15610d93576000600491509150610e32565b600060018787878760405160008152602001604052604051610db89493929190611665565b6020604051602081039080840390855afa158015610dda573d6000803e3d6000fd5b505050602060405103519050600073ffffffffffffffffffffffffffffffffffffffff168173ffffffffffffffffffffffffffffffffffffffff161415610e2957600060019250925050610e32565b80600092509250505b94509492505050565b60006004811115610e75577f4e487b7100000000000000000000000000000000000000000000000000000000600052602160045260246000fd5b816004811115610eae577f4e487b7100000000000000000000000000000000000000000000000000000000600052602160045260246000fd5b1415610eb957611189565b60016004811115610ef3577f4e487b7100000000000000000000000000000000000000000000000000000000600052602160045260246000fd5b816004811115610f2c577f4e487b7100000000000000000000000000000000000000000000000000000000600052602160045260246000fd5b1415610f6d576040517f08c379a0000000000000000000000000000000000000000000000000000000008152600401610f64906116cc565b60405180910390fd5b60026004811115610fa7577f4e487b7100000000000000000000000000000000000000000000000000000000600052602160045260246000fd5b816004811115610fe0577f4e487b7100000000000000000000000000000000000000000000000000000000600052602160045260246000fd5b1415611021576040517f08c379a0000000000000000000000000000000000000000000000000000000008152600401611018906116ec565b60405180910390fd5b6003600481111561105b577f4e487b7100000000000000000000000000000000000000000000000000000000600052602160045260246000fd5b816004811115611094577f4e487b7100000000000000000000000000000000000000000000000000000000600052602160045260246000fd5b14156110d5576040517f08c379a00000000000000000000000000000000000000000000000000000000081526004016110cc9061172c565b60405180910390fd5b60048081111561110e577f4e487b7100000000000000000000000000000000000000000000000000000000600052602160045260246000fd5b816004811115611147577f4e487b7100000000000000000000000000000000000000000000000000000000600052602160045260246000fd5b1415611188576040517f08c379a000000000000000000000000000000000000000000000000000000000815260040161117f906117ac565b60405180910390fd5b5b50565b60008135905061119b81611bad565b92915050565b6000813590506111b081611bc4565b92915050565b6000813590506111c581611bdb565b92915050565b6000813590506111da81611bf2565b92915050565b6000602082840312156111f257600080fd5b60006112008482850161118c565b91505092915050565b6000806040838503121561121c57600080fd5b600061122a8582860161118c565b925050602061123b8582860161118c565b9150509250929050565b60008060006060848603121561125a57600080fd5b60006112688682870161118c565b93505060206112798682870161118c565b925050604061128a868287016111b6565b9150509250925092565b600080600080600080600060e0888a0312156112af57600080fd5b60006112bd8a828b0161118c565b97505060206112ce8a828b0161118c565b96505060406112df8a828b016111b6565b95505060606112f08a828b016111b6565b94505060806113018a828b016111cb565b93505060a06113128a828b016111a1565b92505060c06113238a828b016111a1565b91505092959891949750929550565b6000806040838503121561134557600080fd5b60006113538582860161118c565b9250506020611364858286016111b6565b9150509250929050565b611377816118b3565b82525050565b611386816118c5565b82525050565b611395816118d1565b82525050565b6113ac6113a7826118d1565b611977565b82525050565b60006113bd82611802565b6113c7818561180d565b93506113d7818560208601611912565b6113e0816119df565b840191505092915050565b60006113f860188361180d565b9150611403826119f0565b602082019050919050565b600061141b601f8361180d565b915061142682611a19565b602082019050919050565b600061143e60028361181e565b915061144982611a42565b600282019050919050565b6000611461601f8361180d565b915061146c82611a6b565b602082019050919050565b600061148460228361180d565b915061148f82611a94565b604082019050919050565b60006114a7601a8361180d565b91506114b282611ae3565b602082019050919050565b60006114ca601e8361180d565b91506114d582611b0c565b602082019050919050565b60006114ed601f8361180d565b91506114f882611b35565b602082019050919050565b600061151060228361180d565b915061151b82611b5e565b604082019050919050565b61152f816118fb565b82525050565b61153e81611905565b82525050565b600061154f82611431565b915061155b828561139b565b60208201915061156b828461139b565b6020820191508190509392505050565b6000602082019050611590600083018461137d565b92915050565b60006020820190506115ab600083018461138c565b92915050565b600060c0820190506115c6600083018961138c565b6115d3602083018861136e565b6115e0604083018761136e565b6115ed6060830186611526565b6115fa6080830185611526565b61160760a0830184611526565b979650505050505050565b600060a082019050611627600083018861138c565b611634602083018761138c565b611641604083018661138c565b61164e6060830185611526565b61165b608083018461136e565b9695505050505050565b600060808201905061167a600083018761138c565b6116876020830186611535565b611694604083018561138c565b6116a1606083018461138c565b95945050505050565b600060208201905081810360008301526116c481846113b2565b905092915050565b600060208201905081810360008301526116e5816113eb565b9050919050565b600060208201905081810360008301526117058161140e565b9050919050565b6000602082019050818103600083015261172581611454565b9050919050565b6000602082019050818103600083015261174581611477565b9050919050565b600060208201905081810360008301526117658161149a565b9050919050565b60006020820190508181036000830152611785816114bd565b9050919050565b600060208201905081810360008301526117a5816114e0565b9050919050565b600060208201905081810360008301526117c581611503565b9050919050565b60006020820190506117e16000830184611526565b92915050565b60006020820190506117fc6000830184611535565b92915050565b600081519050919050565b600082825260208201905092915050565b600081905092915050565b6000611834826118fb565b915061183f836118fb565b9250827fffffffffffffffffffffffffffffffffffffffffffffffffffffffffffffffff0382111561187457611873611981565b5b828201905092915050565b600061188a826118fb565b9150611895836118fb565b9250828210156118a8576118a7611981565b5b828203905092915050565b60006118be826118db565b9050919050565b60008115159050919050565b6000819050919050565b600073ffffffffffffffffffffffffffffffffffffffff82169050919050565b6000819050919050565b600060ff82169050919050565b60005b83811015611930578082015181840152602081019050611915565b8381111561193f576000848401525b50505050565b6000600282049050600182168061195d57607f821691505b60208210811415611971576119706119b0565b5b50919050565b6000819050919050565b7f4e487b7100000000000000000000000000000000000000000000000000000000600052601160045260246000fd5b7f4e487b7100000000000000000000000000000000000000000000000000000000600052602260045260246000fd5b6000601f19601f8301169050919050565b7f45434453413a20696e76616c6964207369676e61747572650000000000000000600082015250565b7f45434453413a20696e76616c6964207369676e6174757265206c656e67746800600082015250565b7f1901000000000000000000000000000000000000000000000000000000000000600082015250565b7f4c44546f6b656e3a20696e73756666696369656e7420616c6c6f77616e636500600082015250565b7f45434453413a20696e76616c6964207369676e6174757265202773272076616c60008201527f7565000000000000000000000000000000000000000000000000000000000000602082015250565b7f454950323631323a20696e76616c6964207369676e6174757265000000000000600082015250565b7f46696174546f6b656e56323a207065726d697420697320657870697265640000600082015250565b7f4c44546f6b656e3a20616d6f756e7420657863656564732062616c616e636500600082015250565b7f45434453413a20696e76616c6964207369676e6174757265202776272076616c60008201527f7565000000000000000000000000000000000000000000000000000000000000602082015250565b611bb6816118b3565b8114611bc157600080fd5b50565b611bcd816118d1565b8114611bd857600080fd5b50565b611be4816118fb565b8114611bef57600080fd5b50565b611bfb81611905565b8114611c0657600080fd5b5056fea2646970667358221220029703a058b344087414a50a0e78a8119d5cd18b9116035661ab5f608614925c64736f6c63430008040033",
  "linkReferences": {},
  "deployedLinkReferences": {}
}